:020000040800F2
:10000000C8050020C50100080F1E00082B1B0008B2
:100010000D1E0008650300081526000800000000FA
:10002000000000000000000000000000751F000834
:100030008903000800000000DD1E0008771F00088B
:10004000DF010008DF010008DF010008DF01000810
:10005000DF010008DF010008DF010008DF01000800
:1000600093030008DF010008DF010008DF0100083A
:10007000DF010008DF010008DF010008DF010008E0
:10008000DF010008DF010008DF010008DF010008D0
:10009000DF010008DF010008DF0100089903000804
:1000A000DF010008DF010008DF010008DF010008B0
:1000B000DF010008DF010008DF010008DF010008A0
:1000C000DF010008DF010008DF010008DF01000890
:1000D000DF010008FD250008DF01000809260008EF
:1000E0008B030008DF010008DF010008DF010008C2
:1000F000DF010008DF010008DF010008DF01000860
:10010000DF010008DF010008DF010008DF0100084F
:10011000DF010008DF0100082D2000083920000859
:10012000DF010008DF010008DF010008DF0100082F
:10013000DF010008DF010008DF010008DF0100081F
:10014000DF010008DF010008DF010008DF0100080F
:10015000DF010008DF010008DF010008DF010008FF
:10016000DF010008DF010008DF010008DF010008EF
:10017000DF010008DF010008DF01000800000000C7
:10018000DF010008DF010008DF010008DF010008CF
:10019000DF010008DF010008DF010008DF010008BF
:1001A0000000000000000000DF010008DFF810D0B0
:1001B00000F092F800480047FD270008AFF30080E8
:1001C000C80500200648804706480047FEE7FEE7CE
:1001D000FEE7FEE7FEE7FEE7FEE7FEE7FEE7FEE7F7
:1001E0001D200008AD0100082DE9F05F0546002044
:1001F00092469B4688460646814640241BE0284698
:1002000041464746224600F057F853465A46C01A20
:10021000914110D311461846224600F03EF82D1A9F
:1002200067EB01084F4622460120002100F035F817
:1002300017EB00094E41201EA4F10104DFDC484603
:1002400031462A464346BDE8F09FD2B201E000F8AD
:10025000012B491EFBD270470022F6E710B513466A
:100260000A4604461946FFF7F0FF204610BD30B598
:100270000B46014600202022012409E021FA02F564
:100280009D4205D303FA02F5491B04FA02F52844FE
:10029000151EA2F10102F1DC30BD202A04DB203A58
:1002A00000FA02F1002070479140C2F1200320FAC9
:1002B00003F3194390407047202A04DB203A21FAC7
:1002C00002F00021704721FA02F3D040C2F120026F
:1002D0009140084319467047064C074D06E0E06818
:1002E00040F0010394E8070098471034AC42F6D37D
:1002F000FFF760FF88290008A82900089FED120A6F
:1003000010B5B1EE042AF7EE001AB0EE401ADFED98
:100310000F0A0F4801F0C0FD01F0D2FD01220D4986
:100320000D4801F09BFB0D486FF00104006804616B
:100330000A4800F01BFE0A4800680461BDE810404E
:10034000074800F013BE00000AD7A33B0AD7233C9E
:10035000A4010020140000205C0100208400002083
:10036000CC000020FEE70000054810B5007801F041
:10037000B7FDBDE8104001220149024801F06EBB03
:10038000140000205C01002070474FF4006000F072
:100390007DB8042000F07AB8802000F077B872B6FB
:1003A000FEE72DE9F0410446876D00F09BF9064613
:1003B00094F835000025022806D08020606584F876
:1003C00034500120BDE8F0812068016821F0160159
:1003D00001602068416921F080014161206C08B909
:1003E000A06C20B12068016821F00801016020683C
:1003F000016821F0010101600CE000F073F9801B3D
:10040000052807D920206065032084F8350084F88A
:100410003450D7E720680068C007EED194F85C102C
:100420003F208840B860012084F8350084F83450BB
:100430000020C7E790F83510022903D080214165DC
:1004400001207047052180F835100068016821F00F
:1004500001010160002070470A490B4A802808D03A
:1004600004280AD0D314984202D1032008701360E4
:10047000704701200870802002E0022008700420EC
:100480001060704710000020143C0140044910B572
:100490000A68024202D00860FFF7DEFF10BD0000CC
:1004A000143C01402DE9F84FDFF8F8A100220124A7
:1004B00003254FF00F090AF1040BAAF1040E00BF47
:1004C0000B6804FA02F63340B34270D10F7907F09B
:1004D0000307012F01D0022F16D187684FEA420887
:1004E00005FA08FC27EA0C07D1F80CC00CFA08FC46
:1004F0004CEA070CC0F808C04768B7430E79C6F34A
:10050000001696403E4346600E79F643B6070AD081
:10051000C7684FEA420C05FA0CF6B7438E6806FA34
:100520000CF63E43C6600E7906F00306022E10D18B
:10053000D60800EB8608D8F8206057074FEAD76C3A
:1005400009FA0CF7BE430F6907FA0CF73743C8F8EE
:10055000207006684FEA420C05FA0CF7BE430F798B
:1005600007F0030707FA0CF7374307604E6816F4E5
:10057000403F1CD04C4E376847F4804737603668A0
:1005800022F0030706F480460096484E07EB060C5F
:10059000DCF8086897073F0F09FA07F826EA08060B
:1005A000DFF80C81404503D14FF0000841E072E0D4
:1005B000DFF80081404502D14FF0010839E0DFF853
:1005C000F880404502D14FF0020832E0DFF8EC80BD
:1005D000404502D14FF003082BE0DFF8E4804045AE
:1005E00002D14FF0040824E0DFF8D880404502D162
:1005F0004FF005081DE0DFF8D080404502D14FF0F4
:10060000060816E0DFF8C480404502D14FF0070825
:100610000FE0DFF8BC80404502D14FF0080808E049
:10062000DFF8B080404502D14FF0090801E04FF0FB
:100630000A0808FA07F848EA0608CCF80888DAF841
:1006400000605746D1F804C09E435FEACC2C00D529
:100650001E433E60DBF800605F46D1F804C09E4355
:100660005FEA8C2C00D51E433E60DEF800607746C2
:10067000D1F804C09E435FEA8C3C00D51E433E6027
:10068000084F083F3E68D1F804C09E435FEACC3C67
:1006900000D51E433E60521C102AFFF411AFBDE886
:1006A000F88F0000083C014044380240003001400F
:1006B000000002400004024000080240000C02401A
:1006C000001002400014024000180240001C0240CA
:1006D00000200240002402400AB1816170470904F1
:1006E000FBE7000001488068704700000000002020
:1006F0000248816802781144816070470000002040
:100700000B4810B5016841F400710160016841F4C3
:1007100080610160016841F480710160032000F094
:100720006FF80F2000F006F800F024F8002010BD4C
:10073000003C024070B50D4D04464FF47A712878A4
:10074000B1FBF0F00A490968B1FBF0F000F044FB9E
:1007500048B9102C07D200222146501E00F030F874
:1007600000206C6070BD012070BD00000000002002
:100770000C0000200A4808B5016841F4804101607E
:10078000006800F4804000900548001F016841F0B7
:1007900080510160006800F08050009008BD0000AA
:1007A00044380240002809DB00F01F02012191407B
:1007B0004009800000F1E020C0F8001170470000FF
:1007C000F0B40E4B1B680C46C3F30223C3F10705BC
:1007D000042D00D90425191D072901D2002300E0AA
:1007E000DB1E012606FA05F1491E214099409E4074
:1007F000761E16403143F0BC01F01EBF0CED00E048
:10080000064900F0070208684FF6FF03184040EA67
:100810000220034A10430860704700000CED00E01E
:100820000000FA052DE9F8431748016841F08051AE
:1008300001600068154F00F08050012600903E6472
:10084000FFF750FF05464FF47A78114C05E000BFE2
:10085000FFF748FF401B40450DD86068C003F7D53F
:100860007E64FFF73FFF0546464607E0FFF73AFF85
:10087000401BB04202D90320BDE8F88360688003C2
:10088000F4D50020F8E700004038024000000E4296
:10089000007000402DE9F0470E46050065D0DFF8F6
:1008A0001481D8F80000F7B200F00F00B04207D270
:1008B00088F80070D8F8000000F00F00B04254D162
:1008C00028683D4C810712D5400703D5206840F4C5
:1008D000E05020602878000703D5206840F460408D
:1008E00020602068A96820F0F00008432060287884
:1008F000C0072DD0304968680839012812D0022875
:1009000013D0032811D00968890700292DDA21683E
:1009100021F0030101432160FFF7E4FE814641F22B
:10092000883A0EE009688903EFE709688901ECE776
:10093000FFF7D8FEA0EB0901514502D90320BDE81D
:10094000F0872068696800F00C00B0EB810FEFD1F0
:10095000D8F80010404601F00F01B14207D90770E6
:10096000006800F00F00B04201D00120E7E72878CE
:10097000400705D52068E96820F4E050084320606E
:100980002878000706D52068296920F4604040EAED
:10099000C100206000F038F82168084AC1F3031153
:1009A000515CC8400649086006480068FFF7C2FE6F
:1009B0000020C4E7003C02400838024070290008CB
:1009C0000C00002004000020044805490068096864
:1009D000044AC1F38221515CC84070470C000020DA
:1009E0000838024080290008044805490068096861
:1009F000044AC1F34231515CC84070470C000020EA
:100A00000838024080290008154810B5006810F029
:100A10000C02144813D01449042A0FD0082A0ED10E
:100A20000F4C241F2268236802F03F025B0207D5A7
:100A30002068C0F38810A0FB010106E0084610BD45
:100A40002168C1F38811A1FB00010023FFF7CCFB53
:100A50002168C1F30141491C4900B0FBF1F010BD10
:100A6000083802400024F40040787D012DE9F84F59
:100A700004006ED02078DFF84C93C007A9F104057C
:100A80004AD009F104000168C1F38101012908D0AD
:100A90000068C0F3810002280AD1D9F800004002A2
:100AA00006D52868800337D560680028E1D033E098
:100AB0006068B0F5803F10D0B0F5A02F286810D046
:100AC00020F480302860286820F480202860606846
:100AD000A8B1FFF707FE06460DE0286840F4803015
:100AE000F4E740F480202860F7E700BFFFF7FAFD45
:100AF000801B642873D828688003F7D50CE0FFF7C3
:100B0000F1FD064605E000BFFFF7ECFD801B642801
:100B1000F0D828688003F7D42078DFF8AC8280070B
:100B20004FF0000A3ED5A748001D016811F00C0FD8
:100B300008D00068C0F3810002280BD1D9F800006A
:100B4000400207D42868800716D5E068012800D144
:100B500012E033E1E068B8B10120C8F80000FFF707
:100B6000C1FD064605E000BFFFF7BCFD801B022863
:100B7000C0D828688007F7D52868216920F0F800D8
:100B800040EAC10028600DE0C8F800A0FFF7AAFD08
:100B9000064604E0FFF7A6FD801B02281FD8286840
:100BA0008007F7D42078000722D5864F87486169EF
:100BB000703771B101210160FFF794FD064604E032
:100BC000FFF790FD801B022809D838688007F7D509
:100BD0000EE0C0F800A0FFF785FD064605E082E0C4
:100BE000FFF780FD801B02287DD838688007F7D486
:100BF0002078400768D5DFF8CCB100270BF13C0B1B
:100C0000DBF80000C0000BD4DBF8001041F080518D
:100C1000CBF80010DBF80000012700F080500090B6
:100C20006B4E3068C00510D4306840F4807030607E
:100C3000FFF758FD009005E0FFF754FD0099401ABA
:100C4000022850D83068C005F6D55E4EA0686C36D4
:100C500001280FD00528306810D020F00100306046
:100C6000306820F004003060A068B8B1FFF73AFDAA
:100C700000900FE0306840F00100F4E740F004001D
:100C80003060F7E7FFF72EFD0099411A41F28830F6
:100C9000814266D830688007F4D50EE0FFF722FD68
:100CA000009007E0FFF71EFD0099411A41F28830DD
:100CB000814256D830688007F4D42FB1DBF8001099
:100CC00021F08051CBF80010A069C8B33D49091D3F
:100CD0000968C1F3810102294AD00228504607D091
:100CE000C8F8600000E03CE0FFF7FCFC04463BE095
:100CF0004746C8F86000FFF7F5FC064605E000BF70
:100D0000FFF7F0FC801B02282BD828688001F7D45D
:100D1000D4E907010843A16A2E4A490802EB0141C0
:100D2000626A41EA8211084394F82C1040EA01619A
:100D3000C9F8001001203866FFF7D4FC044606E02D
:100D40003EE000BFFFF7CEFC001B022809D8286850
:100D50008001F7D534E000BFFFF7C4FC001B022878
:100D600002D90320BDE8F88F28688001F4D427E079
:100D70000128F7D0D9F80000E26900F4800191421F
:100D80001CD1226A00F03F01914217D147F6C07191
:100D9000626A0140B1EB821F10D1A26A4FF0FF33AB
:100DA00000F4403103EB5202B1EB024F06D194F84C
:100DB0002C1000F07060B0EB016F01D00120D1E782
:100DC0000020CFE70438024000004742800E47422F
:100DD000007000400000FFFF10B5401EB0F1807FA2
:100DE00001D3012010BD4FF0E02460610F21601796
:100DF00001F022FC0020A06107202061002010BD2E
:100E00007047704770B590F83C20012A32D0012419
:100E100080F83C40022280F83D2003685A689D68B3
:100E200022F070060A6832435A60134B02689A42F5
:100E300014D0B2F1804F11D0104B9A420ED0104B0B
:100E40009A420BD00F4B9A4208D00F4B9A4205D0D2
:100E50000E4B9A4202D00E4B9A4204D1496825F0BB
:100E600080031943916080F83D40002180F83C10D8
:100E7000084670BD022070BD000001400004004023
:100E800000080040000C0040000401400040014008
:100E90000018004010B5040003D094F83D0010B1D4
:100EA00007E0012010BD002084F83C00204600F03F
:100EB0001FF8022084F83D00211D206801F0C2F8CF
:100EC000012084F8460084F83E0084F83F0084F84E
:100ED000400084F8410084F8420084F8430084F81C
:100EE000440084F8450084F83D00002010BD000057
:100EF00008B51A4A01681A48914208D1016841F0C0
:100F000004010160006800F00400009008BD154A6B
:100F100091420ED1016841F0100101600068002289
:100F200000F01000009002213620FFF749FC362027
:100F300010E00D4A9142E9D1016841F020010160C1
:100F40000068002200F02000009001213720FFF708
:100F500037FC3720BDE80840FFF724BC00080040FC
:100F600040380240001000400014004090F83D104E
:100F7000012901D001207047022180F83D1001684D
:100F8000CA6842F00102CA6000681149884214D060
:100F9000B0F1804F11D00F4988420ED00E498842DF
:100FA0000BD00E49884208D00D49884205D00D4922
:100FB000884202D00C49884204D1816801F00701BF
:100FC000062903D0016841F001010160002070474B
:100FD000000001400004004000080040000C0040F8
:100FE00000040140004001400018004070B5044674
:100FF00090F83C000025012817D0012684F83C60B9
:10100000022084F83D002068826822F0770222F4F2
:101010007F4282600868502838D00DDC20284FD0ED
:1010200005DC90B3102811D14AE0022070BD3028B1
:1010300046D040280AD13BE060282FD070280DD040
:10104000B0F5805F03D0B0F5005F12D0012584F8C1
:101050003D60002084F83C00284670BDCB68D1E993
:101060000121206801F067F82068816841F077016C
:1010700009E0CB68D1E90121206801F05CF8206823
:10108000816841F480418160E1E719E0CA684968FC
:10109000206801F025F95021206806E0CA684968F7
:1010A000206801F02EF96021206801F04EF8CEE7AB
:1010B000CA684968206801F013F940212068F4E704
:1010C000226801461046F0E770472DE9F0410446DA
:1010D0000068C66805694FF00007A90713D5B10776
:1010E00011D5F91E016101202077206880698007F1
:1010F000204602D0FFF7E8FF04E000F0A9F8204600
:1011000000F03BF92777680716D5700714D52168DA
:101110006FF004000861022020772068806910F4D5
:10112000407F204602D0FFF7CFFF04E000F090F8A8
:10113000204600F022F92777280715D5300713D568
:1011400021686FF008000861042020772068C069DA
:101150008007204602D0FFF7B7FF04E000F078F8E0
:10116000204600F00AF92777E80616D5F00614D5D0
:1011700021686FF010000861082020772068C0699E
:1011800010F4407F204602D0FFF79EFF04E000F0FD
:101190005FF8204600F0F1F82777E80708D0F0075D
:1011A00006D021686FF001000861204600F04AF97E
:1011B000280608D5300606D521686FF08000086142
:1011C0002046FFF71DFE680608D5700606D5216883
:1011D0006FF040000861204600F056FAA8060AD5D4
:1011E000B00608D521686FF0200008612046BDE8F0
:1011F000F041FFF706BEBDE8F081000010B586B0F3
:10120000044614216846FFF727F80E4920688842F3
:1012100015D10D480021026842F008020260006802
:1012200000F0080005904FF4404000900220CDE906
:101230000101CDE9031069460448FFF733F906B010
:1012400010BD00000008004030380240000C024091
:10125000704770B5044690F83C0000260D46012802
:101260000FD0012084F83C006AB1042A1DD0082A5E
:101270002FD00C2A3FD00126002084F83C003046B5
:1012800070BD022070BD206800F068FF2068816991
:1012900041F0080181612068816921F004018161C8
:1012A000206881692A69114311E0206800F086FFF7
:1012B0002068816941F4006181612068816921F4BD
:1012C00080618161206881692A6941EA0221816126
:1012D000D2E7206800F0A8FF2068C16941F008014A
:1012E000C1612068C16921F00401C1612068C16940
:1012F0002A69114311E0206800F0CAFF2068C16923
:1013000041F40061C1612068C16921F48061C1615B
:101310002068C1692A6941EA0221C161ACE710B5C0
:10132000040003D094F83D0010B107E0012010BD87
:10133000002084F83C00204600F01EF8022084F8CB
:101340003D00211D206800F07DFE012084F846004C
:1013500084F83E0084F83F0084F8400084F841009F
:1013600084F8420084F8430084F8440084F845007F
:1013700084F83D00002010BD7047704710B504464A
:10138000022249B104290ED0082913D094F8410053
:10139000012816D0012010BD94F83E000128F9D193
:1013A00084F83E200FE094F83F000128F2D184F841
:1013B0003F2008E094F840000128EBD184F8402059
:1013C00001E084F841200122206800F0A7FE1649C0
:1013D0002068164A884201D0904203D1436C43F4FE
:1013E000004343642068884213D0B0F1804F10D08E
:1013F0000F4988420DD00F4988420AD00E498842D1
:1014000007D0904205D00D49884202D00C4988424D
:1014100004D1816801F00701062903D0016841F079
:1014200001010160002010BD0000014000040140E6
:101430000004004000080040000C00400040014053
:10144000001800402DE9F0414D4E4E4C07466FF01C
:101450000105B0420CD101F0E5F994ED000AF8EE77
:10146000C00A9FED490A494800F0D2FC3068056186
:10147000474EB74279D14748474902684348002A56
:1014800033DA2268B3EE040A002A16DA4FF00102BA
:101490000A60D0ED070A30EE801A30EE600ABDEE29
:1014A000C11ABDEEC00A11EE100A01B210EE100A08
:1014B00000B201F0E1F939A05CE04BDD4FF002022F
:1014C0000A60D0ED070A30EE601A30EE800ABDEEF9
:1014D000C11ABDEEC00A11EE100A01B210EE100AD8
:1014E00000B201F0C9F936A044E033DD2268BBEE5A
:1014F000040A002A16DA4FF003020A60D0ED070A48
:1015000030EE601A30EE800ABDEEC11ABDEEC00AA0
:1015100011EE100A01B210EE100A00B201F0ACF99F
:1015200030A027E016DD4FF004020A60D0ED070A74
:1015300030EE801A30EE600ABDEEC11ABDEEC00A70
:1015400011EE100A01B210EE100A00B201F094F987
:101550002DA00FE0002008606FF009010A2001F0C3
:101560008BF932A001F058F800E007E036A001F056
:1015700053F83CA001F050F830680561BDE8F081F7
:10158000840000202000002000000000A4010020B2
:10159000CC0000202400002034000020496E697433
:1015A0002E6361725F73746174652E7478743D226A
:1015B000CFF2D7F3C7B0D0D0CABB22FFFFFF0000E5
:1015C000496E69742E6361725F73746174652E7401
:1015D00078743D22CFF2D3D2C7B0D0D0CABB22FF9D
:1015E000FFFF0000496E69742E6361725F7374615E
:1015F00074652E7478743D22CFF2D7F3BAF3D0D04D
:10160000CABB22FFFFFF0000496E69742E6361723E
:101610005F73746174652E7478743D22CFF2D3D2F7
:10162000BAF3D0D0CABB22FFFFFF0000496E697435
:101630002E73706565645F6C6566742E76616C3DB3
:101640003130FFFFFF000000496E69742E73706532
:1016500065645F72696768742E76616C3D3130FF36
:10166000FFFF0000496E69742E6361725F737461DD
:1016700074652E7478743D22D4ADB5D8D7AAC8A6A7
:1016800022FFFFFF00000000704770477047000016
:10169000F8B5016804460868CA684B6910F00F0F76
:1016A0004FF0000559D003F0010602F4907737435C
:1016B00065D0C10705D0D10503D5616C41F00101AA
:1016C0006164410705D5D90703D0616C41F002017F
:1016D0006164810705D5D90703D0616C41F004012D
:1016E0006164010707D502F02001314303D0616C2A
:1016F00041F008016164616C00293AD0800604D58C
:10170000900602D5204600F03DFE20684069616CDD
:10171000C0F38010090700D460B3204600F00BFE30
:1017200020684069400621D52068143050E8001F29
:1017300021F0400140E80012002AF5D1E06BA8B189
:101740006E490165E06BFEF775FE002811D0E06B75
:10175000016D01B0BDE8F040084783060FD5930640
:101760000DD52046BDE8F84000F00CBE2046FFF73E
:101770008DFFF8BD2046FFF789FF6564F8BD266B35
:101780002023012E7DD1C6067BD5D60679D50868E3
:101790004868009048694FF00206400641D5E16B69
:1017A000086840680004000CE8D0A28D8242E5D9A8
:1017B000E085C869B0F5807F2DD020680C3050E8F6
:1017C000001F21F4807140E80012002AF5D1206842
:1017D000143050E8001F21F0010140E80012002AF7
:1017E000F5D12068143050E8001F21F0400140E896
:1017F0000012002AF5D184F84230256320680C30AD
:1018000050E8001F21F0100140E80012002AF5D135
:10181000E06BFEF7C6FD6663A08DE18D401A81B2D4
:101820002AE0A08DE18D401A81B2E08D0028A5D07C
:101830000029A3D022680C3252E8000F20F49070E7
:1018400042E80007002FF5D12068143050E8002F3F
:1018500022F0010240E80027002FF5D184F8423041
:10186000256320680C3050E8002F22F0100240E879
:101870000023002BF5D166632046FFF706FFF8BD75
:10188000FFE705062BD5150629D594F84100212838
:10189000F5D1A068B0F5805F01D12069B0B1206AB0
:1018A000411C2162216800784860E08C401E0004E1
:1018B000000CE084E3D12068C16821F08001C160A0
:1018C0002068C16841F04001C160D8E7206A008803
:1018D000C0F308004860206A801C2062E5E74006EB
:1018E000CDD55006CBD5CA68204622F04002CA604A
:1018F00084F8413000F018F9C1E700002723000800
:1019000070B5040004D094F84100002510B106E041
:10191000012070BD84F84050204600F023F82420B8
:1019200084F841002068C16821F40051C16020465C
:1019300000F08AFD2068016921F49041016120686E
:10194000416921F02A0141612068C16841F40051D8
:10195000C1606564202084F8410084F8420065631A
:10196000002070BDF0B587B0044614216846FEF72C
:1019700073FC344A216800243348022503260727D4
:10198000914222D1304914310A6842F010020A60B3
:10199000096801F010010591016841F00101016041
:1019A000006802AA00F0010005907002CDE9000570
:1019B00082E8D00069462548FEF774FD00221146F2
:1019C0002520FEF7FDFE252038E0214A914237D13F
:1019D0001D4910310A6842F480220A60096801F446
:1019E00080210591016841F002010160016801F068
:1019F00002010591016841F008010160006802AA36
:101A000000F0080005904FF48060CDE9000582E801
:101A1000D00069460F48FEF745FD4FF40070CDE950
:101A2000000502AA694682E8D0000B48FEF73AFD9D
:101A3000002211462720FEF7C3FE2720FEF7B2FE44
:101A400007B0F0BD001001403038024000000240F5
:101A50000048004000040240000C024090F8423070
:101A6000202B01D00220704721B11AB1002303635B
:101A700000F070BD012070470249884201D1FEF795
:101A800073BC70475C0100202DE9F843044690F8D0
:101A90004100984616460D46202802D00220BDE897
:101AA000F88385B17EB100206064212084F8410074
:101AB000FEF718FEA6848146E684A0682027B0F5CC
:101AC000805F02D003E00120E9E7206910B12E46D3
:101AD00000250EE000260CE08021204600F055FD98
:101AE000A8B9C6B116F8010B21684860E08C401E09
:101AF000E084E08C4B464FF00002CDF800800028D7
:101B0000EAD14FF04001204600F03FFD40B184F89B
:101B100041700320C3E735F8020BC0F30800E3E788
:101B200084F841700020BAE77047FEE72DE9F04FD6
:101B300087B014216846FEF78FFB4548016841F0E5
:101B400080010160016801F080010591016841F0A8
:101B500001010160016801F001010591016841F096
:101B600010010160016801F010010591016841F068
:101B700002010160016801F002010591016841F074
:101B8000080101600068DFF8CC9000F008004FF415
:101B900000550590002229464846FEF79DFDDFF8D6
:101BA000B8A0AF10002239465046FEF795FDDFF889
:101BB000ACB04FF4A068002241465846FEF78CFDB9
:101BC00004204FF40416CDE900060124694602946E
:101BD0002348FEF767FCCDE90054032569464846D3
:101BE000CDE90245FEF75EFCCDE90074694650463A
:101BF000CDE90245FEF756FCCDE90084694658461A
:101C0000CDE90245FEF74EFC4FF40860CDE9000631
:101C1000694602945846FEF745FC0022114608200A
:101C2000FEF7CEFD0820FEF7BDFD0022114617206D
:101C3000FEF7C6FD1720FEF7B5FD00220121282082
:101C4000FEF7BEFD2820FEF7ADFD07B0BDE8F08F22
:101C5000303802400010024000040240000C0240F4
:101C60000000024010B58EB0002407940894099437
:101C70000A940B941C2168460C94FEF7EDFA224856
:101C800020490160B321C0E901146321C0E90314B4
:101C900080218161FFF7FEF808B1FEF780FB4FF469
:101CA0008050079007A91848FFF7A0F908B1FEF780
:101CB00076FB1548FFF733FB08B1FEF770FB0B947A
:101CC0000BA911480C94FFF79DF808B1FEF767FBCC
:101CD0006020CDE900040294082269460A48049471
:101CE000FFF7B7FA08B1FEF75AFB0C22694606481F
:101CF000FFF7AFFA08B1FEF752FB0348FFF77EFA91
:101D00000EB010BD000800403C0000201CB50024AF
:101D10000F4800940D490194016042F22731C0E957
:101D2000011440F2E731C16080218161FFF7B2F810
:101D300008B1FEF734FB0094694605480194FFF7AB
:101D400061F8002801D0FEF72AFB1CBD00100040FE
:101D5000840000201CB500240F4800940D49019414
:101D6000016042F22731C0E9011441F28731C160BC
:101D700080218161FFF78EF808B1FEF710FB009417
:101D8000694605480194FFF73DF8002801D0FEF7A9
:101D900006FB1CBD00140040CC0000200C4810B510
:101DA0000A4901604FF4E1314160002181600C2259
:101DB000C160C0E904128161C161FFF7A1FD002883
:101DC00003D0BDE81040FEF7EABA10BD0010014094
:101DD000140100200C4810B50A4901604FF4E131AC
:101DE0004160002181600C22C160C0E90412816160
:101DF000C161FFF785FD002803D0BDE81040FEF764
:101E0000CEBA10BD004800405C010020FEE7FEE7AE
:101E100090ED031A70EE600A80ED041AC0ED030A1B
:101E200030EEC10A90ED021A90ED012A20EE011A5F
:101E300090ED000A60EE801A90ED050A00EE820A2D
:101E400080ED050AD0ED060AB4EEE00AF1EE10FAD4
:101E500006DCF1EE600AB4EEE00AF1EE10FA01D20F
:101E6000C0ED050A31EE810AD0ED050A30EE200AF8
:101E700080ED070AD0ED080AB4EEE00AF1EE10FAA0
:101E800006DCF1EE600AB4EEE00AF1EE10FA01D2DF
:101E9000C0ED070A70470000C0ED061A80ED082A61
:101EA00080EC030A9FED050A80ED030A80ED040A29
:101EB00080ED050A80ED070A704700000000000071
:101EC00010B508210448FFF759FABDE810400C216D
:101ED0000148FFF753BA00003C00002070470000A3
:101EE00070B5234B002103F114025E7846B11C4605
:101EF000A478651CEDB2012E09D0022E15D008E0A1
:101F0000352806D1012159701070997070BD2028B4
:101F100006D0597000201154401C0C28FBDB70BD0A
:101F20000221597010559D7070BD10559D70552837
:101F3000FAD10F4C0020E41C5970251D11188E7821
:101F4000265489792954401C0428F7DB0848C01C12
:101F500000F04CFCA0F51C501038D8600448C01D9F
:101F600000F044FCA0F51C501038186170BD000052
:101F7000140000207047FEF7BBBB000030B593B0E3
:101F800030216846FEF768F914210CA8FEF764F9C1
:101F900020480025016841F080510160006800F090
:101FA000805011901C48016841F440410160006874
:101FB000022400F44040119001200390102004906E
:101FC000009406940820CDE90750B420CDE9090417
:101FD00004200B906846FEF749FD08B172B6FEE793
:101FE000FEF720FC08B172B6FEE70CA90F2081E8CD
:101FF00031004FF4A0500F904FF480501090052105
:102000000CA8FEF747FC002801D072B6FEE713B01B
:1020100030BD0000403802400070004002480168B6
:1020200041F470010160704788ED00E00148FFF75E
:102030004CB80000840000200148FFF746B80000BB
:10204000CC000020F0B50268294C2A4D2A4E2B4FB7
:102050002B4B4FF0804CA04209D0604507D0A842DE
:1020600005D0B04203D0B84201D0984204D122F04A
:10207000700E4A6842EA0E02A0421BD0604519D099
:10208000A84217D0B04215D0B84213D0984211D010
:102090001C4DA8420ED01C4DA8420BD01B4DA8428F
:1020A00008D01B4DA84205D01A4DA84202D01A4DA7
:1020B000A84203D122F44075CA682A434D6922F030
:1020C00080022A4302608A68C2620A688262A04271
:1020D00001D0984201D1096901630121416101697F
:1020E000C90703D0016921F001010161F0BD0000C1
:1020F000000001400004004000080040000C0040C7
:1021000000040140004001400044014000480140FB
:1021100000180040001C00400020004010B501F0F5
:102120001F030121046A99408C430462016A9A40AA
:102130001143016210BD10B5846842EA032224F401
:102140007F440A432243826010BD826822F07002FD
:102150000A4342F00701816070470000F0B5036A4E
:10216000026A22F00102026242688469124E24F07F
:1021700073050C682C4323F002058B682B430D4D2F
:10218000A84201D0B04205D123F00807CB683B43F9
:1021900023F00403A84201D0B04205D14D6922F4D6
:1021A000407215438A692A434260846149684163E9
:1021B0000362F0BD0000014000040140F0B5026A76
:1021C000036A23F010030362436884690D6824F4F2
:1021D000E64444EA05248D6822F0200242EA051212
:1021E0000F4D104EA84201D0B04206D1CF6822F068
:1021F000800242EA071222F04002A84201D0B04217
:1022000007D14D6923F4406343EA85038D6943EAAE
:10221000850343608461496881630262F0BD000008
:102220000000014000040140F0B5026A036A23F493
:10223000807303624368C46922F4007224F073055A
:102240000C68124E2C438D6842EA05220E4DA842BE
:1022500001D0B04206D1CF6822F4006242EA0722E0
:1022600022F48062A84201D0B04207D14D6923F424
:10227000405343EA05138D6943EA05134360C46183
:102280004968C1630262F0BD0000014000040140E2
:1022900030B5046A026A22F4805202624268C3695D
:1022A0000D6823F4E64343EA05238D6824F40054C3
:1022B00044EA0534084DA84202D0084DA84204D192
:1022C0004D6922F4804242EA85124260C361496846
:1022D0000164046230BD00000000014000040140C0
:1022E00010B5036A046A24F001040462846924F0CE
:1022F000F00444EA021423F00A020A4384610262F1
:1023000010BD10B5036A046A24F0100404628469E5
:1023100023F0A00324F4704444EA023243EA01119A
:102320008261016210BD10B5806B0021C185C1843E
:10233000FFF7ACF910BD01680C3151E8002F22F411
:10234000907241E80023002BF5D10168143151E867
:10235000002F22F0010241E80023002BF5D1016B90
:10236000012909D101680C3151E8002F22F0100237
:1023700041E80023002BF5D1202180F842100021F4
:102380000163704708B590F84210222901D002205D
:1023900008BD82684FF480539A4201D1016921B18E
:1023A000816A9A421BD04AB10AE00268816A526887
:1023B000C2F308020A80816A891C08E0026972B1CE
:1023C0000268526802F07F020A70816A491C8162C9
:1023D000C18D491E0904090CC18503D01BE00268A8
:1023E0005268F1E70168CA6822F02002CA600168F9
:1023F000CA6822F48072CA6001684A6922F0010248
:102400004A61202180F8421000214163026B012AB9
:1024100003D0FFF731FB002008BD016301680C31D8
:1024200051E8002F22F0100241E80023002BF5D1E3
:1024300001680A68D20602D50A6849680091818D50
:10244000FFF723F9E7E7000070B50446006801696B
:10245000E26821F44051114301612169A068E269F9
:1024600008436169114308432168CA6849F20C6353
:102470009A430243CA6020684169A26921F440710D
:102480001143416131492068884202D03049884275
:1024900002D1FEF7A9FA01E0FEF796FAE2690023FD
:1024A000192164253226B2F5004F626828D0A0FBBE
:1024B0000101930F9200FDF797FE0146B0FBF5F086
:1024C0006FF01802504301EB800006EB0010B0FBE8
:1024D000F5F000F0F002B1FBF5F002EB0012B1FBF9
:1024E000F5F06FF01803584301EB800006EB001085
:1024F000B0FBF5F000F00F0021681044886070BD5B
:10250000A0FB010192185B41FDF76EFE0146B0FB96
:10251000F5F00201B1FBF5F06FF01803584301EB41
:10252000800006EBC000B0FBF5F000F0F80002EB15
:102530004002B1FBF5F0584301EB800006EBC00010
:10254000B0FBF5F000F00700D6E7000000100140F6
:102550000014014081628285C285002141642221EC
:1025600080F84210016921B10168CA6842F48072A2
:10257000CA6001684A6942F001024A610068C168A4
:1025800041F02001C160002070472DE9F8439846D2
:1025900017460D460446089E24E0701C22D0FEF724
:1025A000A1F8A0EB0800B0421AD8CEB12068C168EB
:1025B000490717D5802D15D0402D13D00168C94388
:1025C00009070FD401680025406800902046FFF7F6
:1025D000B2FE0820606484F840500120BDE8F88312
:1025E0000320FBE72068006835EA000004D00020E3
:1025F000B842D2D00020F1E70120F9E70148FFF707
:1026000047B80000140100200148FFF741B800005E
:102610005C010020FEE700000FB4054B10B503A9D4
:10262000044A029800F028F810BC5DF814FB000082
:10263000CD270008380000200907090E002804DB18
:1026400000F1E02080F80014704700F00F0000F166
:10265000E02080F8141D704702E008C8121F08C16E
:10266000002AFAD170477047002001E001C1121F13
:10267000002AFBD1704700002DE9FF4F89B09B462F
:102680000446002506E025280BD05A460B999047B2
:10269000641C6D1C20780028F5D10DB02846BDE8DB
:1026A000F08F0027B8460122474900E0074314F89D
:1026B000013F203B02FA03F00842F7D120782E2890
:1026C00019D114F8010F47F004072A280ED06FF033
:1026D0002F022078A0F1300109290CD808EB8801DD
:1026E00002EB410100EB0108641CF2E70A98641C4C
:1026F00050F8048B0A9020780028CED0642808D0A7
:10270000692806D075281ED05A460B9990476D1C33
:1027100058E00A994FF00A0901C90A91002802DA23
:1027200040422D2102E0390504D52B218DF82010DF
:10273000012103E0F90704D02021F7E78A4608AE1B
:102740000DE00021FAE70A994FF00A0901C90A9140
:10275000F7E74946FDF78BFD303106F8011D0028EB
:10276000F7D1ADEB060000F12009780701D44FF056
:102770000108C84502DDA8EB090000E00020804602
:10278000002706E008A85A46C05D0B9990476D1CCB
:102790007F1C5745F6DB04E030205A460B999047E2
:1027A0006D1CB8F10001A8F10108F5DC05E016F890
:1027B000010B5A460B9990476D1CB9F10001A9F124
:1027C0000109F4DC641C65E70928010038B50446FA
:1027D0008DF800004FF6FF73012269460248FFF7AB
:1027E00053F9204638BD000014010020827801888A
:1027F000C07862F31F4141EA00607047FDF780FF37
:10280000FFF7BCFBFFF792F9FFF7C8FAFFF7E2FA10
:10281000FFF77CFAFFF726FAFFF79CFAFDF76EFD4B
:10282000FEE7000010B50648016806A0FFF7F4FEB9
:102830000A480168BDE8104009A0FFF7EDBE00009E
:1028400020000020496E69742E785F6F7574707572
:10285000742E76616C3D2564FFFFFF00240000208C
:10286000496E69742E685F6F75747075742E766129
:102870006C3D2564FFFFFF002DE9F0410D462A4E17
:1028800004004FF480714FF480670BD5002230466E
:10289000FDF722FF012239463046FDF71DFF604259
:1028A00004B208E001223046FDF716FF0022394647
:1028B0003046FDF711FF4FF400611C488E001C4F9D
:1028C000002D0ADA0022FDF707FF012231463846C3
:1028D000FDF702FF684205B207E00122FDF7FCFEAA
:1028E000002231463846FDF7F7FE632C01DD6324F4
:1028F00003E00A2C01DA04B10A24632D01DD63250B
:1029000003E00A2D01DA05B10A250A480168CC6303
:1029100000680564214608A0FFF77EFE2946BDE851
:10292000F0410CA0FFF778BE000C0240000402400A
:10293000001002403C000020496E69742E737065DF
:1029400065645F6C6566742E76616C3D2564FFFF7F
:10295000FF000000496E69742E73706565645F72D4
:10296000696768742E76616C3D2564FFFFFF000087
:10297000000000000000000001020304060708092F
:102980000000000001020304A82900080000002044
:102990003C00000058260008E42900083C00002004
:1029A0008C050000682600080100000010000000EF
:1029B000000000000024F4000000000000000000FF
:1029C0000000000000000000000000000000000007
:1029D00035202A3B00005A6B000000550000000023
:0429E00000000000F3
:04000005080001AD41
:00000001FF
